:020000041000EA
:10000000002008205D0100101B0100101D010010E0
:100010001101001011010010110100101101001058
:100020001901001019010010190100101F01001022
:10003000110100101901001021010010230100100E
:100040001101001011010010110100101101001028
:100050001101001011010010110100101101001018
:100060001101001011010010110100101101001008
:1000700011010010110100101101001011010010F8
:1000800011010010110100101101001011010010E8
:1000900011010010110100101101001011010010D8
:1000A00011010010110100101101001011010010C8
:1000B00011010010110100101101001011010010B8
:1000C00011010010110100101101001011010010A8
:1000D0001101001011010010110100101101001098
:1000E0001101001011010010110100101101001088
:1000F0001101001011010010110100101101001078
:100100001101001011010010110100101101001067
:10011000EFF30580103800BE00BE00BE00BE00BE7A
:1001200000BE00BEF2EB8871449D0010689D001077
:10013000A001001090A31AE7D3DEFFFF42012110B7
:10014000FF01000094B20000793512AB4FF00000BF
:100150001E49086006C881F3088810474FF05040D8
:10016000006810B14FF00000F2E70DA40ECC00299A
:1001700002D000F012F8F9E71549164A002000E015
:1001800001C19142FCD11449884714498847144958
:10019000884700BEFDE701C901C29A42FBD3704700
:1001A000689D00101001002074170020CCB30010CF
:1001B0000000082000000820CCB300100010082028
:1001C00000100820000000007047000008ED00E06B
:1001D00074170020C026002041630010E9100010B1
:1001E00039630010F8B500BF08B5034B1BB10349D4
:1001F0000348AFF3008008BD000000001C2600206B
:100200008C960010142800D070474B07FCD50122B3
:10021000014B1A70704700BFBA26002030B52DED93
:10022000108B09EE102A06EE901A29EE097A06EED6
:10023000103AA6EEA67ADFED087AA6EE067AB4EEBC
:10024000677AF1EE10FACDB08DED067A0D92089135
:100250000E9300F03F8701E000000000D0ED01BAEE
:10026000D0ED036AD0ED025AB8EE007A90ED084A5C
:100270002BEE876AD0ED094A26EE877ACDED095A32
:10028000B0EE673A75EEA55AF0EE672AF0EE671AFF
:10029000B0EE678AD0ED10AA90ED0A5AD0ED043A7C
:1002A000E7EE041AA6EE443AE6EE642AA5EE848A46
:1002B000B0EE672AB0EE670AB0EE674AD0ED178A53
:1002C00090ED11AACDED0A6AA6EE452A73EEA36A57
:1002D000A5EEA40AA7EE244AE5EEEA2AD0ED1EDA3E
:1002E00090ED18CACDED0FBAA5EECA2AD0ED0BBA23
:1002F000A6EE6A0AA6EEAA4AE7EE282AF0EE670AF8
:10030000F0EE674AF0EE67FA90ED1FEAE7EE2BFA9F
:10031000CDED073AE5EE850AF0EE613AE7EE054AE3
:10032000A7EE0C2AA6EEA80AA6EE284AE6EEAD2A0B
:10033000D0ED258AF0EE671AB0EE671A90ED0FBA8D
:10034000D0ED129AE6EE6B1AA5EEAB1AB0EE6F5A2C
:10035000E6EE4A0AE6EE8A4AA6EE8E2AE8EEA72ADA
:10036000D0ED268A90ED169AD0ED19CAA5EECB3ABB
:10037000E5EEE91AA6EE691AA6EEA95AE6EE8C0A8F
:10038000E6EE0C4AA7EE6D0AA5EEAD4AA8EEA72A46
:10039000D0ED258A90ED1DDAD0ED20EAA7EE093ADE
:1003A000E7EE2C1AA6EEAC1AA6EE2C5AE7EE4E0A91
:1003B000E5EE8E4AA8EEA70AA8EEA74AD0ED268A57
:1003C00090ED24FAA6EE8D3AE6EEAE1AA7EE6E1A7E
:1003D000A5EEAE5AE8EEA70AE8EEA74AD0ED278AC6
:1003E000E6EE8B3AA6EE4B8AAFEE273AE8EEA71A76
:1003F000A8EEA71AA8EEA75AD0ED2B8AE6EE093A86
:10040000A6EE898AA8EEA73AD0ED2C8AE5EE8D3AC1
:10041000A7EE4D8AE8EEA72AD0ED2D8AEFEE273A17
:10042000AFEE278AA8EEA72AD0ED2B8AA8EEA78ADE
:10043000E8EEA73AD0ED2C8AA8EEA70AA8EEA74AC4
:10044000D0ED2D8AE8EEA70AE8EEA74AD0ED2E8A75
:10045000E8EEA71AA8EEA71AA8EEA75AD0ED328A9E
:10046000A8EEA73AD0ED338AE8EEA72AD0ED348A79
:10047000B0EE48EAA8EEA72AD0ED328AE8EEA73A15
:10048000A8EEA7EAD0ED338AA8EEA70AF0EE40EA7C
:1004900090ED340AE0EE274AE0EE270A90ED350AA7
:1004A000A8EEA74AE0EE271AA0EE271AA0EE275AD8
:1004B000D0ED0C8AB0EE670AD0ED0C9AA6EE680A71
:1004C000F0EE678AE5EEA98ACDED020AF0EE680A41
:1004D000F0EE678AE7EE298AD0ED0EDAD0ED0D9ABC
:1004E0008DED011AF0EE67AAB0EE681AF0EE678A99
:1004F000E5EEADAAE6EE698AF0EE6ABAB0EE689A69
:10050000B0EE678AF0EE678AF0EE67AA90ED15DA32
:10051000E5EEA98AA7EE298AE7EE2DAAD0ED0E9A7C
:10052000B0EE67CA90ED1CBAD0ED13DAA6EE69CA38
:10053000E6EE8DAAE6EE4DBAE6EE0BAAA5EEED0AC2
:10054000E6EE6D0AA6EEAD1AA5EECDCAD0ED14DA30
:1005500090ED1ADAD0ED1BCAA5EEED9AE6EE6D8AA3
:10056000A6EEAD8AA7EE0D0AE6EE8D0AA6EE0D1AEE
:10057000F0EE6ADAD0ED21AA90ED22AAA7EE2C9A2D
:10058000A6EE2C8AA6EEAA0AE7EE6A0AA5EEAA1A39
:10059000F0EE67AAA7EE0BCAA6EE8A9AA5EE8A8AA3
:1005A000E6EEAC8AB0EE6BDAE6EE43AAF0EE4CCAA9
:1005B000A6EE8BDA90ED29CAE7EE4A8AB0EE49FA48
:1005C000B0EE48BAB0EE67AAE5EEE2AAD0ED289AFE
:1005D000D0ED23BAACEE27FAECEE278AACEE27BAC0
:1005E000E7EE02AAA7EE0EAAB0EE67CAE9EEA70AE6
:1005F000A7EE6BDAB0EE6A8AB0EE689AA5EE83CA0F
:10060000D0ED2F8A8DED045AA6EEAEAA9DED025ACA
:10061000A9EEA70AF0EE4DFAA6EE05AAB0EE60DA52
:10062000F0EE4C0AB0EE48CA9DED018AA8EEA70A8A
:10063000A5EE88AAA9EEA71AE6EEABCAE5EEABDAFC
:10064000F0EE409AF0EE4ABA90ED36AAEAEE279A1A
:10065000B0EE4FAA90ED30FAAFEE27AA90ED2AFA4D
:10066000EFEE27CAA8EEA71AA8EEA7DAB0EE6CFA4A
:10067000D0ED36CAB0EE670AACEEA7DAF0EE41CAAA
:1006800090ED361AF0EE67AAE1EE27CAA5EE8E0AC3
:10069000CDED03CAB0EE451AD0ED30CAE6EE4EAA53
:1006A000F0EE678AA6EE6E0AACEEA79AACEEA7BA99
:1006B000A6EE810AD0ED2ACAE7EE038AE5EEEEAA9D
:1006C000E6EE620AB0EE671AECEEA7FAECEEA7DAF5
:1006D000E7EE05AAD0ED37CAE6EEA28AE6EE820A78
:1006E000A7EE231AB0EE695AACEEA7BAE6EE88AAD6
:1006F000A7EE480AE6EE028AE7EE610AA6EE841A41
:10070000CDED05FAACEEA79AACEEA7AAE5EE270A66
:10071000F0EE4BCADDED05FA90ED31BAA6EE241AE3
:10072000EDEE27BAE5EEA18AEDEE27AAADEE270A97
:10073000E9EE27BAABEE27FAE5EE278AE9EE27AA1B
:10074000A9EE270AEBEE27FAEBEE27DA8DED0B9AEE
:10075000B0EE60BA9DED049AF0EE410AB0EE688A00
:10076000E5EE890ADDED038AA6EEA1CAE8EEA70A46
:10077000A9EEA7CAD0ED388AF0EE6B9AF0EE4FBA28
:10078000E8EEA7FAAAEE27CAB0EE6AFAB0EE671A48
:10079000F0EE6BAACDED05FAE8EEA7AAF0EE4CFA62
:1007A000A5EEA31AE8EEA7DAEAEEA7FADDED058AD0
:1007B000B0EE69CA8DED0C5AAAEE27BAB0EE405AD7
:1007C000A6EE441AB0EE670AF0EE6FBAA8EEA7CA1A
:1007D000A8EEA7FAA8EEA75AAAEEA7BADDED608A9E
:1007E000AAEE278AA6EE630AECEEA70AA6EEA41AE2
:1007F000F0EE4CFAF0EE4B9A3BEEA8CA38EE85BA12
:10080000AAEEA78AA7EE491ADDED03BAA5EEC40A3F
:10081000EDEEA70AA7EE240A78EEA00AABEEA71A1F
:100820006FEE088A8DED148A28EE4B8AA6EE890AAF
:10083000AFEEA98AB0EE4C9AACEEA71A2CEE2FCAF6
:10084000ABEEA70A29EECF5ACDED13FAADEEA71AFB
:10085000F0EE48FA3CEE688AA9EE0B5AACEEA70A15
:1008600021EE488AADEEA70AA5EE208AAFEE808A77
:100870008DED109A8DED115AB0EEC89A9FED865A03
:10088000B4EEC59AF1EE10FACDED159ACDED12FA4F
:1008900000F12084DDED06FA04461FEE900A78EEA2
:1008A000CC8A9DED095AF6EE009A17937B4BCDED5D
:1008B0000D8AA3EB600308EE903A25EE45CA6FEE71
:1008C000A99ADDED0FBA69EEA89A9DED0A5AF0EEED
:1008D0004CFAB7EE00CACDED069A8CEE08CA65EE6A
:1008E0006B9A9DED078A9DED095AE5EE089A9DEDFC
:1008F0000A5ACDED089A65EE089A9DED095AEBEE7D
:10090000859A9DED068AEBEEABFAF0EE69BAF7EE4A
:10091000089A9DED0A5AE8EEC89AE5EE45FAB0EE5F
:10092000695ADDED089A79EEA99A9DED078ACDED19
:10093000089A7BEEAB9AF0EE6FBAE8EE08BA9DED3E
:10094000118A28EE0C8A8DED118A9DED0D8A28EE14
:100950000C8A8DED168A9DED128A28EE0C8A0E9176
:1009600065EE28FA8DED068A9DED0E5A9DED088AFA
:1009700009EE102A95EE2F8AD9EE2F9A9DED175A7F
:100980008DED0D8AB0EE6B8ACDED089A95EE2F8A2B
:10099000DDED109A8DED0E8A21EE695A9DED148AD7
:1009A000DDED15BAA0EE2B5A6BEEE0BA60EE4BFA15
:1009B00068EE408AE1EE08BA9DED138AEFEE01FA87
:1009C00020EECFFA21EE481AE9EEA08AABEE201A0B
:1009D000A8EE00FA25EE0CBA68EE8C0A6FEE8CFADF
:1009E0002FEE0CFA6BEE8CBA21EE0CCA54220021C9
:1009F00022A8CDED1A7ACDED106A8DED127ACDEDEB
:100A00001B4ACDED145A8DED1C4A8DED156ACDEDC6
:100A10001D3ACDED1E1A8DED1F2ACDED202A8DED4C
:100A2000213ACDED130A08F07FFC9DED127ADDED41
:100A3000106A9DED156ADDED145A234622468DEDB0
:100A400010BACDED12FA8DED14FACDED15BA8DED8B
:100A500017CACDED18EA8DED19EA9DED038A9DEDDB
:100A6000045ADDED1B4A9DED1C4ADDED1D3A9DED5E
:100A7000213ADDED202A9DED1F2ADDED058ADDED11
:100A80001E1A9DED0B9ADDED0C9ADDED1A7A22A966
:100A900004F1C40004E000BFBD378635DF59375F7D
:100AA000D2ED08FA91ED000AD1ED010A91ED021A9A
:100AB00092ED09FAA7EE2F0AE5EEAF0AA6EE6F1A3D
:100AC000D2ED0AEAA6EE8F0AE6EE4F0AA5EECF1A9D
:100AD00092ED0BEAA6EE2E0AE6EEAE0AA7EE2E1A6D
:100AE00092ED0CCAA5EE8E0AE7EE4E0AA6EE8E1A1D
:100AF000D2ED0DBAACEE270AECEE270AACEE271ABF
:100B000092ED0EBAABEEA70AEBEEA70AABEEA71A70
:100B1000ABEE270AEBEE270AABEE271A1C32904207
:100B200001F10C0101ED030A41ED020A01ED011A88
:100B3000B6D19DED10BA9DED226A8DED038AB0EE1F
:100B4000678ADDED12FA9DED257AABEE068A8DED12
:100B5000045ACDED058A9DED115AF0EE675AB0EEBC
:100B6000670AF0EE678ADDED130A9DED14FADDEDFC
:100B7000266A8DED108AE5EE075A9DED168AABEEDA
:100B8000070AEFEE878A8DED0B9AB0EE671AB0EE8A
:100B9000679A9DED237AEFEE268AA5EE061AAFEE50
:100BA000869AE8EE265AA0EEA60ACDED0C9ADDED67
:100BB000106ADDED289AB0EE676AE0EE876AA5EE6E
:100BC000296AA8EE071AAFEE079A9DED297AA8EEDA
:100BD000076AB0EE677AABEE297A8DED116AB0EE56
:100BE000476AB0EE677AAFEEA97ADDED279A8DED10
:100BF000127A9DED067AE7EE295ADDED249ADDEDB5
:100C000015BAA7EE291ADDED279AABEEA90ACDEDAC
:100C1000106A9DED17CAF0EE656AB0EE417AF0EE0B
:100C2000405A9DED101AB0EE680ADDED248AACEE54
:100C3000290AABEEA81AACEE289ADDED18EAF0EE20
:100C4000468A9DED19EADDED299A9DED126AAFEE17
:100C5000296AE0EEA98A8DED106ADDED099A9DED15
:100C60000D6AE6EE269ACDED3A6AB0EE696ADDEDE0
:100C70000D6ADDED0F9A8DED377AE6EE879A9DEDE0
:100C8000087AF0EE696AA7EE256AE7EE016A8DED53
:100C9000381A8DED399AB0EE461AB0EE496A9DEDDC
:100CA0000E9A8DED3C0AA9EE001AB0EE660A9DED93
:100CB0002A7AA9EE060A9DED106AEBEE878AACEE61
:100CC000076ACDED3B5ADDED116ADDED065ADDED2B
:100CD0002B9AE5EE876AB0EE469AF0EE685A8DEDF3
:100CE0000F1AB0EE676AB0EE671AF0EE678AA5EEEB
:100CF000291AABEE296AEFEEA98AB0EE677ADDED2C
:100D00002E9AA5EE297ADDED2C9A8DED107AA8EEBB
:100D1000291A9DED0D7ADDED0A9AE7EE269AB0EEDE
:100D2000697ADDED2C9AEFEE298AA0EEA96ACDED65
:100D30003D6ACDED3E5A8DED099A8DED3F9AF0EE6C
:100D4000686A9DED109ADDED2F9ADDED088AA8EE18
:100D5000299AA8EEA57ADDED2D9ADDED065A8DEDE6
:100D60000A9AA5EEA91A9DED0E9AABEEA96AECEED1
:100D7000296ADDED095AF0EE479AE9EE259A9DEDD4
:100D80000D7AF0EE695ADDED079AE7EE019AB0EEC2
:100D9000697AA8EE867A8DED416ADDED2E8AB0EE95
:100DA000476AF0EE679AA9EE266AEBEE289A9DED67
:100DB000067A8DED401ACDED426AB0EE691ADDED8E
:100DC0000A6ADDED309A8DED0E6AB0EE676AE7EEE5
:100DD000296AAFEEA86ADDED0F8A8DED076ACDEDC9
:100DE0000A6A28EEA86ADDED316AF0EE678AE5EE60
:100DF000268ACDED098AF0EE678AEBEE268ACDEDE4
:100E0000108AF0EE678ADDED2F9AEFEEA68AF0EEFB
:100E1000416A9DED071A9DED327AAFEE291ACDEDAC
:100E2000128ADDED098A8DED071AE8EE078A9DED3D
:100E30000A1AE0EEA96A8DED431ACDED118ADDEDB7
:100E4000108ADDED309AE0EE878AEBEEA96AA0EE1B
:100E5000006ACDED138AF0EE668ADDED076AECEEEE
:100E6000296AF0EE469A9DED121AE5EEA59AAFEECC
:100E7000071A9DED0E6AB0EE697AA6EE067ACDED00
:100E8000098A8DED107ACDED448A9DED337ADDED42
:100E9000118ACDED076ACDED456ADDED066AE6EE15
:100EA000878A8DED141ACDED128A9DED146ADDED61
:100EB000138AACEE076AEBEE878AF0EE679A9DED37
:100EC000347AE5EE079AF0EE696AF0EE679AEFEE93
:100ED000877AEBEE079AF0EE67FADDED107A9DED7A
:100EE000357A8DED116AB0EE66BAB0EE696A17EE2A
:100EF000905AA8EE07BAA0EE876AF6EE000A774984
:100F0000DDED366AA1EB6501EFEE07FA27EEA07A78
:100F100007EE901AF0EE4B0AB0EE46BA9DED065A77
:100F2000ABEEA6BA27EE277AF0EE6FBAF7EE089A84
:100F30009DED128AE5EE260AECEE26BAE7EEC79A98
:100F40009DED11FA69EEA76A8DED468ACDED478ACF
:100F50008DED48FACDED490A8DED4ABACDED4BBA8B
:100F6000D4ED057A9DED0D5A9DED0A7A9DED0ECAE0
:100F70009DED0F6AE5EE077A26EE866A26EE807A08
:100F800066EEA55A9DED080A66EE8C6A9DED09CACB
:100F9000C4ED046AE0EE0C7ADDED076AE9EE267A2C
:100FA000C4ED057AD4ED067AE5EE087AE0EE287A0B
:100FB000E9EE0F7AC4ED067AD4ED077AE5EE207AF1
:100FC000E0EE0B7AE9EE2B7A9FED451A84ED017A7B
:100FD00084ED026AC4ED035AC4ED077A9DED038ADD
:100FE0009DED045ADDED058A9DED0B9ADDED0C9A21
:100FF00037AAD2ED005AB0EE41CAF0EE41BAB0EED7
:1010000041BAB0EE417AF0EE417AB0EE410AF0EE2C
:10101000410A92ED016AA3EEA5CAE4EE25BAA4EE58
:10102000A5BAA5EE257AE8EE257AACEEA50AEDEE96
:10103000A50ADDED025AA5EE86BADDED015AD2ED24
:10104000026AA5EE867AD3ED08FA93ED09FA1C330D
:10105000AEEE06CAEEEE86BAEDEE067AA6EE090A06
:10106000E6EE280AA6EEA17A93ED046AE6EEA97AE6
:1010700036EE477A93ED056AA6EE8A0A76EE677A2F
:1010800093ED066AA6EE83CAE6EEA2BAA6EE82BA8F
:10109000E6EEAA0A76EE405AD3ED036A93ED076AAC
:1010A0007FEECCFA3FEE6BFA76EECB6A36EE606AF4
:1010B0008342C3ED01FA83ED02FAC3ED036A83EDC7
:1010C000047AC3ED057AC3ED065A83ED076A02F18F
:1010D0000C028ED14DB0BDEC108B30BDDF59375FA7
:1010E00000000000000000002DE9F04F2DED108BF6
:1010F000ADF56F7D64200DF5357B02F0C7FC5B46D6
:10110000044884AA53A902F005FF38B901490248EE
:1011100001F042FD90D00300C8960010B59A849962
:101120000446539802F032FE05F03CFA40F6B8301F
:1011300002F0ACFCCD4805F079FACD4805F076FA1E
:10114000052002F01DFE4FF47A71B0FBF1F1C948A1
:1011500005F0EAFA192001F0F9FC19234FF0010219
:1011600042EC4430C44BC5494993C548A3F102132E
:101170004A9307F0EDFE00254FF0010900F1090246
:10118000C30143EA023323F0F853DFF8F48249AF96
:101190000593089406904FF44023B7934FF400331F
:1011A000002637F8024B059AB593230603F0F8534F
:1011B0001343B693E30303F4782306212046B89340
:1011C00001F03CFC294601232246AD48009607F079
:1011D00043FF5B462946069AA94807F083FFD8F8E3
:1011E000002009FA05F301351343042DC8F8003037
:1011F000D1D129460220089C01F020FC052002F0F4
:10120000BFFD07EE100A9FED9F9AB8EE477ADFED1B
:101210009E8AC7EE097AB3EE008A77EEA87A67EE67
:10122000887A4FF4F578FCEEE77A4FF4FF63974F36
:1012300001227E610221FE6195483E627B62C7ED1C
:10124000067A3346C7F81490CDF8008005F06CFAA2
:101250002946032001F0F2FB052002F091FD07EE84
:10126000100AB8EE477AC7EE097A77EEA87A67EEE9
:10127000887A0123FCEEE77A4FF4FF627E61032156
:10128000FE6183483E627A62C7ED067A1A46C7F865
:101290001490CDF8008005F047FA2946284601F061
:1012A000CDFB052002F06CFD07EE100AB8EE477A80
:1012B000C7EE097A77EEA87A67EE887A4FF4FF6373
:1012C000FCEEE77ABE6202223E6329467E637048E6
:1012D000BB63C7ED0B7A3346C7F82890CDF8008082
:1012E00005F022FA2946052001F0A8FB052002F0AE
:1012F00047FD07EE100AB8EE477AC7EE097A77EE97
:10130000A87A67EE887ABE62FCEEE77A3E637E6377
:101310004FF4FF660123BE630222C7ED0B7A05215D
:10132000C7F828905A48CDF8008005F0FDF95948D3
:1013300005F07CF93A6A584B82F47A7292B21A62DA
:101340003A6A564E82F07A7232401A627A6B2946B5
:1013500082F47A7292B25A637A6B152082F07A72B2
:1013600032405A6301F06AFB4FF4FA62FA627A6B18
:10137000494B32405A63BA6ADFF84091D24302F0D7
:10138000010209F110059A62B9F80030002B40F013
:10139000F6807B6BDFF800813340B9F80200C8F8B3
:1013A000343002F073FB7B6B14203340C8F83430C8
:1013B00009F1040902F06AFBA945E5D1142001F006
:1013C000C5FB1425002747EC44504FF002093A466C
:1013D0002846012101F050FB0122314B284604210F
:1013E00001F05CFB29462F4D2F4805F09DF928465A
:1013F0002E4907F0C9FE2E4BD5F804C0C3F804905F
:101400002B682C4A2C4E83F007030CEA090C03F0DE
:10141000CF0333600121C2F804C0122001F00EFB9B
:101420000121132001F00AFB0121102001F006FB2D
:10143000112001F08BFB4FF011084FF0010646EC34
:10144000448046EC40800A2002F020FB4FF0FF333E
:101450008DF8D4728DF8103200BF00BF00BF47EC8A
:10146000408000BF00BF00BF012229E0909600101D
:10147000A0960010B096001009000800B49A001061
:1014800000002050002474490000003D00800A4004
:10149000FC9600103897001000900A400000FFFFF3
:1014A00005020010000008405C97001040420F0049
:1014B000003008400020084000100840A49A0010A6
:1014C00084A9284608F09CF801235A463946284644
:1014D00008F0AEF800BF00BF00BF46EC408000BF80
:1014E00000BF00BF012002F0D1FA80238DF8D47232
:1014F0008DF8103200BF00BF00BF47EC408000BF36
:1015000000BF00BF012284A9284608F079F8012312
:101510005A463946284608F08BF800BF00BF00BF86
:1015200046EC408000BF00BF00BF9DF8D412D12917
:1015300045D0834805F0F8F8824805F077F8DFF8E1
:101540002482DFF81492804E804D814F814C238895
:10155000002B40F0B782736B60882B407B6302F0F6
:1015600095FA736B14202B407B63043402F08EFADF
:101570004445ECD14FF47A7002F088FAE6E7764AF7
:10158000B9F80200B2FBF3F3013B9AB2BA637A6B8B
:101590005B0882EA0343DFF8B8813340C8F834308F
:1015A00002F074FA7B6B14203340C8F8343009F130
:1015B000040902F06BFA4D457FF4E6AEFEE667489B
:1015C00005F0B2F8664805F031F84BF27E63ADF8ED
:1015D000D43200BF00BF00BF47EC408000BF00BF57
:1015E00000BF4A465946284608F00AF800BF00BF27
:1015F00000BF46EC408000BF00BF00BF642002F087
:1016000045FA4FF0FF338DF8D4728DF8103200BFD9
:1016100000BF00BF47EC408000BF00BF00BF0122F9
:1016200084A9284607F0ECFF01235A46394628468C
:1016300007F0FEFF00BF00BF00BF46EC408000BFC8
:1016400000BF00BF052002F021FA82238DF8D4727A
:101650008DF8103200BF00BF00BF47EC408000BFD4
:1016600000BF00BF012284A9284607F0C9FF01235B
:101670005A463946284607F0DBFF00BF00BF00BFCF
:1016800046EC408000BF00BF00BF41F27E13ADF8C2
:10169000D43200BF00BF00BF47EC408000BF00BF96
:1016A00000BF4A465946284607F0AAFF00BF00BFC0
:1016B00000BF46EC408000BF00BF00BF322002F0F8
:1016C000E5F941F27E53ADF8D43200BF00BF00BF50
:1016D00047EC408000BF00BF00BF4A46594628463D
:1016E00007F08EFF00BF00BF00BF46EC408000BF88
:1016F00000BF00BF642002F0C9F983238DF8D472C3
:101700008DF8103200BF00BF00BF47EC408000BF23
:1017100000BF00BF012284A9284607F071FF012302
:1017200039465A46284607F083FF00BF00BF00BF76
:1017300046EC408000BF00BF00BF9DF8D41273E0AC
:10174000DC9700101C98001000800A400000FFFF8A
:1017500000900A40989A001040420F0084970010B1
:10176000B0970010A49A0010984804F0DDFF41F2F1
:101770007E13ADF8D43200BF00BF00BF11274FF079
:10178000000848EC407000BF00BF00BF022259466D
:10179000284607F035FF00BF00BF00BF46EC407091
:1017A00000BF00BF00BF322002F070F941F27E534B
:1017B000ADF8D43200BF00BF00BF48EC407000BF9E
:1017C00000BF00BF02225946284607F019FF00BF9C
:1017D00000BF00BF46EC407000BF00BF00BF6420E8
:1017E00002F054F983238DF8D4828DF8103200BFB3
:1017F00000BF00BF48EC407000BF00BF00BF012227
:1018000084A9284607F0FCFE012341465A46284693
:1018100007F00EFF00BF00BF00BF46EC407000BFE6
:1018200000BF00BF9DF8D41214299DD1684804F070
:10183000FDFE40F64103ADF8D43200BF00BF00BF4B
:1018400011254FF0000747EC405000BF00BF00BF1C
:10185000022259465F4807F0D3FE00BF00BF00BF19
:101860004FF0010646EC405000BF00BF00BF4FF4F0
:101870003153ADF8D43200BF00BF00BF47EC405039
:1018800000BF00BF00BF02225946524807F0B8FE11
:1018900000BF00BF00BF46EC405000BF00BF00BF0C
:1018A0004323ADF8D43200BF00BF00BF47EC405027
:1018B00000BF00BF00BF02225946464807F0A0FE05
:1018C00000BF00BF00BF46EC405000BF00BF00BFDC
:1018D00042F64253ADF8D43200BF00BF00BF47EC20
:1018E000405000BF00BF00BF02225946394807F0F0
:1018F00087FE00BF00BF00BF46EC405000BF00BFE6
:1019000000BF40F65323ADF8D43200BF00BF00BF84
:1019100047EC405000BF00BF00BF022259462D488F
:1019200007F06EFE00BF00BF00BF46EC405000BF96
:1019300000BF00BF48F25603ADF8D43200BF00BF6D
:1019400000BF47EC405000BF00BF00BF0222594615
:10195000204807F055FE00BF00BF00BF46EC4050D6
:1019600000BF00BF00BF41F25103ADF8D43200BF49
:1019700000BF00BF47EC405000BF00BF00BF0222C5
:101980005946144807F03CFE00BF00BF00BF46ECBC
:10199000405000BF00BF00BF0F490E4807F070FC69
:1019A0000E4804F043FE00234FF07E510C4AB691DE
:1019B000CBF824300021B5925A460A48B793B89321
:1019C000B993BA93BB93BC93BD900DE044980010BB
:1019D00070980010000008408096980090980010C1
:1019E00035FA8E3CCDCCCC3D0329936200F0878044
:1019F0000429D36240F00E87DD9053630131936375
:101A0000012902F11C0213627DD002295362EBD13D
:101A1000CD90D362136306295363EFD1484A494BF3
:101A20001068ED9307F0E8FD474B064618680F462F
:101A300007F0E2FDCDE90201444BDFF83091186870
:101A400007F0DAFD32463B46CDE90001404804F09C
:101A50006BFE02F00DF9C9E9000102F009F98846B0
:101A6000059002F005F93B4E0694CDF82080002445
:101A7000CDE93801384D394FDFF8F48011E0716B52
:101A800029407963B8F8020002F000F8716B142065
:101A900029407963013401F0F9FF032C08F10408AF
:101AA00036D0B8F800000028E9D02D49B1FBF0F19C
:101AB000013988B2B063706B490880EA014129405E
:101AC0007963DFE7B9FBF3F3013B9AB26088B26355
:101AD000726B5B0882EA03432B407B6301F0D6FF05
:101AE000736B14202B407B63043401F0CFFFA045BF
:101AF0007FF42DAD4FF47A7001F0C8FF26E5D59044
:101B0000136353637AE7C5909362D362136382E7EA
:101B1000DFED144A0023069CCDED3C4ACDED3F4A53
:101B2000CDED3D4ACDED404ACDED3E4AB0EE64FAF2
:101B3000CDED414ADDF820800B4E2894299320E01A
:101B400098150020CDCCCC3D901500209415002098
:101B5000D898001000800A400000FFFF00900A4063
:101B600040420F00000000006C2600207817002083
:101B70008C9A001000409C4602F07AF8C9E90001F6
:101B8000002402F075F8059B0546C01A0F4661EB6C
:101B9000080102F0F3FE1FED097A07EE900AF4EE59
:101BA000C77AF1EE10FA00F3FF83E54BB360002C27
:101BB000E2D119234FF0010545EC4030E14B1B7891
:101BC000002BDDD0DF4B1C70299B0133299302F0E1
:101BD0004FF80B46D9F80020D9F804100746801AB0
:101BE00063EB0101069302F0C9FEDFEDD77A07EE41
:101BF000100A069BC7EE27BAC9F80430C9F800706E
:101C000002F036F88C238DF84C3100BF00BF00BFC6
:101C1000112744EC407000BF00BF00BF012253A950
:101C2000CA4807F0EDFC0C23214684AAC74807F0F8
:101C3000FFFC00BF00BF00BF45EC407000BF00BF0D
:101C400000BFBDF91232DFEDC26A05EE103ABDF9F0
:101C50001032B8EEC55A05EE903ABDF91432C5EE11
:101C6000264A06EE103ADFEDBB7A9DEDBB9AF8EE00
:101C7000E55AB8EEC66A9DEDB9BA94EEA79A85EE1C
:101C8000A65ADDEDBA8AC6EE265ADDEDB6CADDEDFE
:101C9000B8AAD5EE278A9DEDBC8A65EEA77A6BEED1
:101CA000495A9DEDB7AA37EEC88A2AEEC96AE8EE0E
:101CB000AC5AB6EE00CA69EE2C6AAAEE686AE8EE83
:101CC0002A5AE8EE8B6AA8EE4B6A65EE8C5ACDED87
:101CD0003B7AB0EE4A5A69EE0A7AABEEA55AEAEEC2
:101CE000E87AE8EE4A6A26EE0C6AF0EE6C5AE8EE04
:101CF0002C7AEBEE865A66EE8C6AB0EE6A6A67EE74
:101D00008C7AABEEA66AF0EE4B6AEBEEA76A65EE54
:101D1000057AE5EEA57AE6EE067AE6EEA67A17EE05
:101D200090CABDF8163267EE8C4A3A938A4BB7EEEA
:101D3000087AA3EB6C0307EE903A64EEA74AA7EE8D
:101D4000E47A67EE277A65EEA75A25EE275A26EE43
:101D5000276A66EEA76A502221466FA8CDEDB65AD3
:101D60008DEDB75A8DEDB86ACDEDB96ABDF8187230
:101D7000BDF81A5207F0D8FAFEEE007A2AEE0CAA45
:101D800068EE279A68EEA78A29EE279A6AEE8CAA4F
:101D90002BEE0CBA2AEE2BAA6AEEABAA2BEE2BBACC
:101DA00068EEAB8A29EE2B9A69EEAB9A6CEEA77AB5
:101DB0004FF07E5327EEAB8AF1EE6A2AB1EE4B3A32
:101DC000F1EE4A3AB1EE68CAF1EE69CAB1EE49DA0B
:101DD000C422214684A8CDED602ACDED322A8DEDB6
:101DE000653A8DED333A53935B9363936B9373939F
:101DF0007B9383938DED57AACDED58AA8DED59BAFB
:101E00008DED5E8A8DED5FBA8DED668A8DED67AAE8
:101E1000CDED6CAA8DED6E8A8DED5ACACDED5CCA02
:101E20008DED61DA8DED64CACDED68CA8DED69DAAC
:101E3000CDED548A8DED559ACDED569A8DED5D9A86
:101E4000CDED629ACDED6A8ACDED6D3ACDED273AB2
:101E500007F06AFADDEDC53ACDED063ADDEDCC3A94
:101E6000CDED083ADDEDD33ACDED093ADDEDDA3AC4
:101E7000CDED0A3ADDEDE13ACDED0B3ADDEDBF3ABD
:101E8000CDED0C3ADDEDC63ACDED0D3ADDEDCD3AB6
:101E9000CDED0E3ADDEDD43ACDED0F3ADDEDDB3A86
:101EA000CDED103ADDEDE23ADDEDBD7A9DEDC47A7F
:101EB000DDEDCB6A9DEDD26ADDEDD95A9DEDE05A9C
:101EC000DDEDE74A9DEDBE4A9DEDE82ADDEDE91A1C
:101ED000CDED113ADDEDC03ACDED123ADDEDC73A68
:101EE000CDED133ADDEDCE3ACDED143ADDEDD53A38
:101EF000CDED153ADDEDDC3ACDED163ADDEDE33A08
:101F0000CDED173ADDEDC13ACDED183ADDEDC83A29
:101F1000CDED193ADDEDCF3ACDED1A3ADDEDD63AF9
:101F2000CDED1B3ADDEDDD3ACDED1C3ADDEDE43AC9
:101F3000CDED1D3ADDEDC23ACDED1E3A0EE000BF0B
:101F400000807B44BA260020002474490000084029
:101F50003333834135FA8E3CDF59375FDDEDC93AC3
:101F6000CDED1F3ADDEDD03A9DEDEA1ADDEDEBFA4D
:101F7000CDED203ADDEDD73ACDED213ADDEDDE3A7B
:101F8000CDED223ADDEDC33ACDED233ADDEDCA3A8F
:101F9000CDED243ADDEDD13ACDED253ADDEDD83A5F
:101FA000CDED263ADDED273A84AACDED2ABA8DEDA6
:101FB0002EAACDED2FAA8DED30BA8DED318A8DEDA3
:101FC00035CACDED36CA8DED37DA1346DDEDE5EADB
:101FD0009DEDECEADDEDDFDA9DEDE60ADDEDED0AE3
:101FE000CDED2B8A8DED2C9ACDED2D9ACDED343A99
:101FF000CDED277AB0EE473AF0EE662AB0EE468A8B
:10200000B0EE65CAF0EE45CAB0EE64AAB0EE44DAAE
:10201000F0EE42AAB0EE61BAF0EE41BA53A9D3EDA8
:10202000004AD1ED009ADDED277AD3ED025AE9EEB0
:10203000A74ADDED0C7A93ED036AE9EEA75ADDEDD0
:10204000127AD3ED046AA9EEA76ADDED187A93ED52
:10205000057AE9EEA76ADDED1E7A93ED015AD3ED1C
:10206000063AA9EEA77ADDED237A91ED019AA9EE61
:102070008D5AE9EEA73ADDED069AA9EE295ADDED73
:102080000D9AE9EE295ADDED139AA9EE296ADDEDE4
:10209000199AE9EE296ADDED1F9AF0EE637AA9EE4E
:1020A000297ADDED249AD1ED028AE9EE034AE9EEC0
:1020B000297A9DED089AA8EE895A9DED0E9AE8EED0
:1020C000895A9DED149AA8EE896A9DED1A9AE8EE58
:1020D000896A9DED209AA8EE897A9DED259A91ED69
:1020E000031AD1ED041A91ED052A91ED064AE8EEA6
:1020F000A24AE8EE897ADDED098AA1EE285ADDEDE3
:102100000F8AE1EE285ADDED158AA1EE286ADDED91
:102110001B8AE1EE286ADDED218AA1EE287ADDED49
:10212000268AE1EE084AE1EE287A9DED0A1AA1EE30
:10213000815A9DED101AE1EE815A9DED161AA1EE1D
:10214000816A9DED1C1AE1EE816A9DED221AE1EE95
:102150008C4AA1EE817AE1EEAD7ADDED0B1AA2EEAA
:10216000215ADDED111AE2EE215ADDED171AA2EE29
:10217000216ADDED1D1AE2EE2C4AE2EE216AA2EEA2
:102180002E7AE2EE007AE4EE0A4AA4EE2A5AE4EE4F
:102190000B5AA4EE2B6AE4EE2F6AA4EE0E7AE4EE5C
:1021A000207A1C335B4501F11C0143ED074A03ED26
:1021B000065A43ED055A03ED046A43ED036A03ED45
:1021C000027A43ED017A7FF42AAFDDED2ABADDED24
:1021D0002B8A9DED2C9ADDED2D9A9DED2EAADDED3D
:1021E0002FAA9DED30BA9DED318ADDED322A9DEDAD
:1021F000333ADDED343A9DED35CADDED36CA9DED5D
:1022000037DA59465B46A84CDFF8C4C242A842946C
:10221000439444944594CDF818C1CDF81CC1CDF831
:1022200020C192ED000AB0EE4F1AD2ED010AF0EE95
:102230004F6AB0EE4F7AF0EE4F7AA0EE0F1AD2ED61
:10224000021A30EE0F4AECEE006AADEE007AECEEC8
:10225000807AA0EE8F1AA8EEA04A70EEA66AA9EEC8
:10226000A07AEDEE207AA1EE8F1A92ED032AA9EE64
:10227000214AECEEA16A31EE877AE8EEA17AF0EE1F
:10228000411AE2EE0F1AD2ED044AA9EE824AE9EEB3
:10229000026AACEE027A72EE277AB0EE612A92ED13
:1022A000055AA4EE8F2AAAEE244AE8EE246AA3EE89
:1022B000247AEAEEA47AAAEE854A74EEA14A75EE73
:1022C000021A92ED066AEBEE056AA8EE057AE3EED5
:1022D000857AE5EE0F4AA5EE0F2AB0EE445AB0EE2D
:1022E000614AE8EE067AABEE065AE2EE866AAAEE9C
:1022F000067AE6EE0F4AA6EE0F4A36EE026A83ED44
:10230000085AC3ED096A83ED0A7AC3ED0B7AC3ED6F
:102310000C4A83ED0D4A83ED0E6AF0EC015AD1EDC3
:10232000087AEBEEA57A1C325A4503F11C0301F141
:102330002001C1ED007A7FF474AF289B002B40F0A0
:102340002F82289B83F00103DBB22893299B1B0774
:1023500000F0C08001F08CFC42F211720D46389BF7
:102360000446C11A399B65EB0303914273F10003E4
:10237000FFF406AC306807F03FF902460B46F06800
:10238000CDE9062307F038F9CDE90201706807F0BE
:1023900033F9DDE90623CDE90001444804F0C4F92E
:1023A000CDE93845FFF7ECBB414B5A68D2056FD4F5
:1023B0001B6A9FED407ADB4307EE903A9FED3E5A51
:1023C000F8EEE77ADFED3D5AA7EE857A9FED3C6A9D
:1023D00027EE257AF3EE0E6AC7EE067A344B77EED7
:1023E000E67A5A68900559D45B6ADFED326ADB43BE
:1023F00007EE103ADFED304AB8EEC77A9FED2F5A5C
:10240000E7EE246ADFED2E5A26EE857AB3EE0E6AE9
:10241000C7EE256A76EEC66A254B5A68510558BF45
:102420009B6A234B5A6812053BD4DB6A9FED216AF5
:10243000DB4307EE103A9FED204AB8EEC77ADFED96
:102440001F4AA7EE046A9FED1E5A26EE246AF3EE99
:102450000E5A86EE057A37EE657A1A4BB84693ED3A
:10246000005A194B77EEC57AD3ED005A174B76EE2A
:10247000E56A93ED006AF1EE677A37EE467AC6EDCB
:10248000016A86ED037AC6ED007A0595FFF78DBBEC
:10249000074BF0EE4F7A5A689005A5D5F0EE4F6ADB
:1024A000BAE7B0EE4F7AD8E76F12833AB0980010CF
:1024B0000000205000007AC46F12833C000070427C
:1024C00000007A44981500209415002090150020F3
:1024D000ACC527379DEDB8CA9DEDB9BA6CEE0CAA14
:1024E0009DEDB78ADDEDB68AB7EE009A6CEE0B7AF9
:1024F000F0EE6A6AB0EE007AE8EE086AE8EE887AF2
:10250000B0EE496A77EEA77AA6EEC76A17EE900A90
:1025100016EE101A02F09EFA6BEE487AE8EE8C7A0C
:1025200007EE100A9DEDB5AA77EEA77AC7EE0A9AD4
:10253000B0EEE77AB4EEC97AF1EE10FABC4BC3ED17
:10254000009AC0F25B8117EE903A9FEDBA7ADFED08
:10255000BA7A002B67FE277A17EE900A07F04CF83C
:10256000B1A3D3E9002302F003F802F075F828EED6
:102570000C8AB0EE007AEBEE0BAAF7EE007AA8EE2A
:102580008B8AEAEEC77A17EE901A78EE087AAB4B90
:1025900009EE100A186017EE900A02F05BFA07EED7
:1025A000100AC7EE0A7AA64B9DED3B7AC3ED007A7E
:1025B000D6ED004ADDEDBC7A74EEE94A77EE677A33
:1025C0009DED3E7ADFED9F6AABEEA47AB4EEE67A3B
:1025D0009FED9D6AF1EE10FA67EE867A24EE8F6A1F
:1025E00000F30981DFED996AF4EEC76AF1EE10FAA3
:1025F00036FE877A8DED3E7A9DED407A74EEC76A9D
:102600009DED3E7AD6ED015AA7EE0F6A86EEAB7AC3
:1026100075EEC95AA7EE0F6A9DED3D7A9FED895A76
:10262000ABEEA57AB4EEC57AF1EE10FA884B65EE02
:102630008F6A83ED006A00F3DB809FED845AB4EE6D
:10264000C75AF1EE10FA35FE077A8DED3D7A96ED18
:10265000035A9DED3F7A35EE675ADDED3C7A75EE13
:10266000C73A9FED784A9DED3D7AEBEE857AE7EE2D
:102670000F6AF4EEC47A83EEAB7AF1EE10FAE7EE6D
:102680000F6A744B25EE0F7AC3ED006A00F3AD803C
:102690009FED6E4AB4EEE74AF1EE10FA74FE277A27
:1026A000CDED3C7A9DED414AD6ED027ADDED3C3A26
:1026B00035EE444AFCEEE77ACDED3F5AF8EE677A04
:1026C000C4EE2B5AA3EE8F7AA5EE8F7A77EE865A58
:1026D0008DED415A77EEC67A35EEE65A37EEE66A68
:1026E00075EEA65A77EEA67A35EE075A5A4B36EEB5
:1026F000476A83ED007A75EEC76A77EE877ABCEE9B
:10270000C57A17EE100ABCEEC67A17EE101ABCEEA8
:10271000E67AFCEEE77A17EE102A17EE903AB0F55B
:10272000FA6F28BF4FF4FA60B1F5FA6F28BF4FF483
:10273000FA614A4FB2F5FA6F3C6A28BF4FF4FA6269
:10274000B3F5FA6F28BF4FF4FA63B0F57A7F2CBF68
:10275000444084F47A74B1F57A7F38BF4FF47A71CB
:102760003F4DA4B2CDED404A2C62386AB3F57A7F72
:1027700080EA01416FF30F012962796B38BF4FF492
:102780007A73B2F57A7F2CBF514081F47A7189B2A5
:1027900069637A6B82EA03436FF30F036B63D9E5D6
:1027A0002DB207EE905A3FB2F8EEE76A07EE907A44
:1027B000BDF9E830B8EEE77A07EE903A9FED296A66
:1027C000F8EEE77A4FF07F5366EE866A27EE067AD8
:1027D00067EE867A009317EE102A16EE903A17EEFF
:1027E000901A5846FDF71AFDABE58DED3C4A59E7C6
:1027F0008DED3D5A2BE7CDED3E6AFDE617EE900AD2
:1028000001F0DEFF06F0F8FE07A3D3E9002301F094
:10281000AFFEAAE6052913637FF4FDA8E590FFF754
:10282000EDB800BFAFF30080F8C1631ADCA54C40DF
:1028300084260020DB0FC93FDB0FC9BF3C260020E8
:10284000AC2600200000C843E02E65420000C8C34B
:102850008826002040260020B026002000800A4064
:1028600000900A40000080394FF050402DE9F84FA9
:102870006D49D0F800A06D4A6D4B51F82A70BAF13D
:10288000000F0CBF9046984647B30026DFF8A4B16E
:10289000DFF8A491F3080C3358F823503446083677
:1028A000C5B105F00F012D0989B15BF82A2004F0AC
:1028B0000703E240E0089B00D20701FA03F300F1AE
:1028C0008C0C03D4204649F82C30B84715B101349C
:1028D000B442E6D3202EDDD1BDE8F88F554DFC087B
:1028E00004F10C0358F8233007F10800002B7CD0CA
:1028F00013F00F064FEA13120AD055F82A10F940C8
:10290000C90703D44C498C3441F82460002A6CD0A8
:1029100012F00F024FEA13210DD055F82A407E1C09
:10292000F440E40705D4F408434E12018C3446F811
:102930002420002959D011F00F014FEA133407D099
:1029400055F82A20BE1CF240D20758D5002C4CD096
:1029500014F00F044FEA134107D055F82A20FE1C4B
:10296000F240D20752D500293FD011F00F014FEAB3
:10297000135207D02F4C54F82A603C1DE640F6074E
:102980004BD592B312F00F024FEA13610DD0294CD0
:1029900054F82A607C1DE640F60705D4264EE4086C
:1029A00012058C3446F82420F9B111F00F014FEADA
:1029B00013731FD01F4CBE1D54F82A20F240D207BB
:1029C00005D4F2081C4E09068C3246F8221063B179
:1029D000073754F82A20FA40D10706D41649FF08D1
:1029E0001B0707F18C0241F8223020283FF474AF16
:1029F000074674E7002BF8D00E4C0737E9E7F208DA
:102A00000D4E09028C3246F822109FE7F2080A4E5A
:102A100024038C3246F82240A5E7074EE408090457
:102A20008C3446F82410ACE79C21002048820240F8
:102A30009082024064260020008002404FF4807C97
:102A40000C4B00B553F8202003EB8003C00082F04C
:102A5000400200F1804003F5805E02F0C00200F504
:102A6000203003F54053CEF800204160C3F800C089
:102A700000BD00BF04800340DFF81CC0C9000CEBA0
:102A800080035CF8200041EA8201414001F00C0122
:102A900003F5805319607047048003402DE9F0412D
:102AA0004FF0504690461D463268234B0F4653F870
:102AB0002210044682B049B3002D33D0114643F8AA
:102AC00022501E4A1E4B1F48002918BF1346E1081A
:102AD00004F00704A40007FA04F201F18C0440F8A2
:102AE000242003EB8103B8F1000F09D00121152048
:102AF00003F500531A6002B0BDE8F04100F040B9A0
:102B000003F540531A6002B0BDE8F08145B143F8C7
:102B1000225015200A460C4900F0ACF93168D0E784
:102B20001146CEE708491520019200F09FFA31685E
:102B3000019A014BC3E700BF9C2100209082024014
:102B40004882024000800240692800104FF00003D4
:102B500000B543EC440043EC40004FF0050E4FF449
:102B6000807C0C4BC20053F8201002F1804203EB32
:102B7000800381F0400103F5805001F0C00102F5AF
:102B8000203203F540530160C2F804E0C3F800C0EE
:102B900000BD00BF048003400FB400B5084883B0F7
:102BA00003F044FD049B3BB105A91846019103F0D5
:102BB000A9FB044803F03AFD012003F0BBFB00BF72
:102BC0001C9900102C990010EFF3108072B6064B80
:102BD000D3E8CF1F01220029FAD1C3E8412F0029F1
:102BE000F6D1BFF35F8F7047871D00200023034A93
:102BF000C2E88F3F80F31088704700BF871D002018
:102C000070B51646EFF3108472B6DFF848E0DEE8E0
:102C1000CF2F0123002AFAD1CEE8423F002AF6D175
:102C2000BFF35F8F012301F0070CCA0803FA0CF30E
:102C300010F802C01CEA030508D14CEA030C00F8A6
:102C400002C0CEE88F5F84F3108870BD3046FFF776
:102C5000A3FF00BF871D0020F8B50F461946EFF30C
:102C6000108672B61C4DD5E8CF4F0123002CFAD147
:102C7000C5E8443F002CF6D1BFF35F8F8A421BD8D2
:102C8000012402E00132914222D3D30810F803E07C
:102C900002F0070C04FA0CFC1EEA0C0FF2D14EEA0B
:102CA0000C0E00F803E010460023C5E88F3F86F3C2
:102CB0001088984207DBF8BD0023C5E88F3F86F3F4
:102CC00010884FF0FF30002FF5D00698FFF764FF13
:102CD0004FF0FF30E8E700BF871D0020044A10785E
:102CE000431CDBB2182B28BF10231370704700BFA2
:102CF0009C15002000B5DFF81CC083B001461F23DF
:102D00001822CDF800C00248FFF7A6FF03B000BDAF
:102D1000AC210020309900104FF0E022936843F07E
:102D200000539360704700BF0021044B03F1200261
:102D3000C3E88F1F01339342FAD170477C1D0020F6
:102D40004FF0E0234FF08032C3F80024C3F804248E
:102D5000C3F80824C3F80C24C3F81024C3F81424BF
:102D6000C3F81824C3F81C24C3F82024C3F824246F
:102D7000C3F82824C3F82C24C3F8302462B6704763
:102D8000012300F01F029340400941B1800000F18F
:102D9000604000F56140C0F8803103607047024A2E
:102DA000203042F82030704700E100E00123064A5D
:102DB000410952F8212000F01F008340134214BF44
:102DC00001200020704700BF00E100E0012243091C
:102DD000034900F01F008240403341F82320704730
:102DE00000E100E0054A10309268054B52F82000DF
:102DF000C01A2F288CBF00200120704700ED00E092
:102E0000A015002010B582B0EFF3108472B6164BF7
:102E1000D3E8CFCF0122BCF1000FF9D1C3E84C2F8A
:102E2000BCF1000FF4D1BFF35F8F104A10309268ED
:102E3000DFF83CC052F82020624508D0914206D00D
:102E4000CDE9000101F036FA0199074B0098074AD5
:102E5000926842F82010BFF35F8F0022C3E88F2FE3
:102E600084F3108802B010BD851D002000ED00E045
:102E7000110100102DE9F04F06468946154683B032
:102E8000EFF3108872B6724FD7E8CF2F0123002AD4
:102E9000FAD1C7E8423F002AF6D1BFF35F8F6D49F0
:102EA00091F90020002A7BDB6B4802EB420400EB27
:102EB000840393F806C0103681F800C06749A40067
:102EC00089684FEA420A51F826E0AEEB00012F294B
:102ED0002ED963498E4540F0858043F0010E614B49
:102EE00002340444043B1B1BC3F34A036FEAC3438D
:102EF0004FF421416FEAD343524420F8221000EBF3
:102F0000820253804BF601539380FF23D571C2F8A0
:102F100008909371514B9B6843F826E0BFF35F8F95
:102F20000023C7E88F3F88F3108803B0BDE8F08F17
:102F30002EF0010C9CF80710A9425BD9B34601940E
:102F40001E4603E0CB79AB4230D98C469CF9064053
:102F500004EB4401002C00EB8101F3DA00944BF602
:102F6000015433465E460CF1040B043BA3EB0B0308
:102F7000C3F34A036FEAC3436FEAD343ACF80430A8
:102F8000394B0AEB02018CF8062040F82130009BF7
:102F900000EB810294809371D571C2F80890B9E773
:102FA00001F088F92B4991F900207DE76FF00701C6
:102FB0000094019C3346091BBCF80440091A44F3F1
:102FC0000A04019102340CF1040101EB44045E4651
:102FD0008B4601990C44C4F34A046FEAC4446FEA77
:102FE000D444C2E7CDE9002301F064F9DDE9002310
:102FF000194872E71B4AA11CDD710144043A251DE2
:10300000521A0544ACF10401491BC1F34A016FEAAD
:10301000C141C2F34A026FEAC2426FEAD1414FF4A2
:10302000214E6FEAD24299800F4920F804E05A807D
:103030004AF6AA256246121A524155432D0DC3F88D
:1030400008909D7143F0010ECCF8001062E700BFBC
:10305000851D0020B7260020A015002000ED00E00F
:1030600011010010D0150020014880472DE9F04FD4
:10307000034685B0EFF3108772B6764CD4E8CF0FD5
:1030800001220028FAD1C4E8402F0028F6D1BFF36E
:103090005F8F714A03F110069268DFF8D48152F80D
:1030A000260040454BD0884257D06C4DA0EB050C14
:1030B000BCF12F0F43D84FF0010E4FEA531C4FEADB
:1030C0008C0C0CF1604202F56142D2F800C003F0B2
:1030D0001F030EFA03F300920193C2F8803003EA53
:1030E0000C09BFF35F8FEFF30583DBB29A46002B29
:1030F00035D09E4205D0CDE9020101F0DBF8DDE9D3
:10310000020120F0010EDEF808C0614505D18CE017
:10311000D3F808C0614532D09E469EF9062002EBE6
:103120004203002A05EB8303F2DA614560D0DDE952
:103130000032B9F1000F1FD0C3F880211A60464B4E
:103140009B6843F82600BFF35F8F0023C4E88F3FDE
:1031500087F3108805B0BDE8F08F4046EFE720F018
:10316000010EDEF808C06145D7D19EF906B09B4537
:10317000734609DA404646E0C3F88020DFE793F95A
:1031800006B0BBF1000F34DB0BEB4B0C05EB8C02F4
:1031900092F807E04FEA8C010291916883F807E00A
:1031A00092F906C09960BCF1000F83F806C04FEA9F
:1031B0004B0E38DB6FF0070C9288029942F30A023B
:1031C00001EB420208322A44ACEB030C6244C2F326
:1031D0004A026FEAC2426FEAD2429A80204BDE4432
:1031E0001A7805EB8E0E83F800B08EF806209EE765
:1031F0007346BAF1000F1ED1FF228EF806204BF65F
:103200000152AEF80420DFF858C04AF6AA229CF812
:1032100000E01946491B49414A43120D83F806E074
:103220008CF8002083E70F4AD7E79EF906B0734673
:10323000BBF1000FA8DA0C4A0C4DD21A083AC2F3BF
:103240000A316FEA01516FEA115145EA5202DA8000
:1032500099806CE7851D002000ED00E0A01500209E
:10326000B726002001BDFFFFDA15002000F8FFFFA0
:10327000110100102DE9F041EFF30583DBB29E460A
:10328000EFF3108572B62949D1E8CF2F0123002A28
:10329000FAD1C1E8423F002AF6D1BFF35F8FDFF8D1
:1032A0009C8040F00106D8F808704AF6AA2357F827
:1032B0002E7004461E4AA41A644163431B0DB74294
:1032C0005BB21ED092F906409C4220D092F9124087
:1032D0009C4227D092F91E409C4225D092F92A4068
:1032E0009C4208BF032413D0124A002492F800C065
:1032F000137080F806C0C1E88F4F85F31088BDE8D1
:10330000F081D8F808200C4C42F82E40ECE700245D
:1033100004EB440402EB8402FF2494714BF6015445
:103320009480E1E70124F3E70224F1E7851D002002
:10333000A0150020B72600201101001000ED00E0CC
:1033400000B5DFF824C083B0014605230022CDF884
:1033500000C00448FFF780FC0028A8BFC0F133007C
:1033600003B000BDBC2600204C990010014B0B445B
:10337000036070477C1D0020F8B5124C124DAC4222
:103380001ED2FF2600270CE0FFF7A8FC01462046CE
:10339000FFF7ECFF26716771BFF35F8F0834AC4213
:1033A0000ED22368002BEFD1FFF798FC0146204690
:1033B000FFF7DCFF2671BFF35F8F0834AC42F0D318
:1033C000F8BD00BF641700207417002010B5044634
:1033D000FFF784FC01462046FFF7C8FFFF23237157
:1033E000BFF35F8F10BD00BF10B504460120FFF78B
:1033F00081FC034B03442360BFF35F8F10BD00BF0C
:103400007C1D0020024B0B440360BFF35F8F7047AD
:103410007C1D00200D4B1A68EFF3108172B6D2E8C4
:10342000CFCF0120BCF1000FF9D1C2E84C0FBCF1A5
:10343000000FF4D1BFF35F8F00221B68C3E88F2F0A
:1034400081F3108840BF0020002170478C260020A7
:103450002DE9F04F2DED028B85B0EFF30582D2B24E
:10346000A2F110039B0800F043810123AA49AB4C51
:1034700002F0030BAA4A0BEB830352F823500123FB
:1034800003FA0BF39FEDA28B02930B6030E0B5F9CA
:103490000430002B80F29480AB79002B40F0DE806A
:1034A000B5F90860002EC0F21D816B6906EB460677
:1034B00003EBC603D3E90267B7F1FF3F08BFB6F1DC
:1034C000FF3F0ED004EB8B01A36A0A69D21AF31AEC
:1034D000934205D30123226A03FA0BF3134200D16E
:1034E0000E61204600F0BCFBB042B941C0F2FA8048
:1034F000B5F90860029B002EE363C8DBD5F8149091
:1035000006EB460A09EBCA07BB682046D7F80C80D1
:10351000019300F0A5FB019B984271EB0801B6DB1B
:10352000B8F1000FC0F2C180D7E904317D4A93425F
:1035300000F0FE807A88B5F9080042EA004098471A
:1035400002460B4652EA030100F0AF80002B80F2E6
:10355000D2800199B1EB020E68EB030839F93A30D9
:10356000C7E902E8002B92DB686903EB430200EB3A
:10357000C202D2E90271BE4578EB010C4FEA430268
:1035800085DBAC462CF8083F06E003EB430100EB7B
:10359000C1015A00D1E90271BE4578EB01011A441C
:1035A00005DB30F9323000EBC20C002BEDDA29F8E4
:1035B0003A30ACF80060B5F90430002BFFF66CAF80
:1035C0002B69EFF3108272B6D3E8CF0F01210028E8
:1035D000FAD1C3E8401F0028F6D1BFF35F8F4FF642
:1035E000FF76B5F9040000232969AE80C1E88F3F5A
:1035F00082F310889842FFF64FAF0746A1466E69E6
:1036000005F10808B5F9083007EB470E002BC44652
:1036100006EBCE0215DBD2E90240AA46019704E090
:1036200036F935309446002B09DB03EB430506EBF6
:10363000C502D2E90271BC4270EB0101F0DA5546D5
:10364000019FACF8007036F93E7026F83E30002F2E
:10365000D8DAAB794C46002B3FF422AF0023AB7194
:10366000B5F90860711C33463CD0686905F1080E55
:1036700003E08E465A1C3FF415AF03EB430200EB08
:10368000C201B1F902709C46002F30F93230F0DAF5
:10369000664581ED028BEDD0AEF800302989664693
:1036A00020F83210A5F808C0E4E739F83A302B8149
:1036B0002B69EFF3108272B6D3E8CF0F01210028F7
:1036C000FAD1C3E8401F0028F6D1BFF35F8F6B88A3
:1036D000296929F83A3000236E80C1E88F3F82F3D0
:1036E0001088D4E640BF05B0BDEC028BBDE8F08F7A
:1036F0000D490E4CBCE620460393019200F0B0FA4F
:10370000019A039B10EB020E43EB010826E700BF72
:10371000FFFFFFFFFFFFFFFF44B00B4000800B40A7
:10372000442600205134001044300B4000000B4070
:1037300008460B69039198470028B6D00399D1E950
:103740000023FFE638B5384B1C692CB1BDE8384082
:103750000A213648FFF70ABE0321354800F06EFA09
:10376000334D314BDD60FFF7B9FA324A4FF0504E1E
:10377000024403202C4B4FF00F0C18701A61DEF836
:1037800000204FF6FF715A705A69A3F802C01483E3
:103790004FF00204A2F848404FF00404A2F8784029
:1037A0004FF00504A2F890404FF00604A2F8A8409C
:1037B0004FF00704A2F8C0404FF00904A2F8F0400F
:1037C0004FF00A04A2F808414FF00B04A2F8204180
:1037D0004FF00C04A2F838414FF0010414864FF06A
:1037E0000804A2F8D840144C4FF00D0E4FF00E0C08
:1037F0009C6008249980A2F850E1A2F868C1A2F860
:10380000600011800D4A2C620D49D360FFF7FAFA6F
:1038100001210320FFF7B4FA0A4B0A211C64034874
:10382000BDE83840FFF7A2BDE81500208C26002037
:1038300000000B407C1D0020FFFF100044260020EC
:103840005134001000200B4000487047E81500205C
:10385000F0B583B09DF82850044655B9CDE9002352
:1038600000F006FA009A019B824263EB0101A94233
:103870005CDB2169EFF3108072B6D1E8CF6F0125D0
:10388000002EFAD1C1E8465F002EF6D1BFF35F8F5C
:10389000B4F902502769002D3FDBD4F814C005EBC2
:1038A000450E3CF83E10002661800CEBCE01C7E8C7
:1038B0008F6F80F310884888C1E902230130C0F37C
:1038C0000E00012838BF0120089B48800B61099B2E
:1038D00040EA05404B612369EFF3108272B6D3E8EA
:1038E000CF7F0121002FFAD1C3E8471F002FF6D167
:1038F000BFF35F8FB4F904302CF83E302369A58004
:10390000C3E88F6F82F310880122E368217803F502
:1039100001538A405A6003B0F0BD0023C7E88F3FCF
:1039200080F310884FF0FF3003B0F0BD284603B09D
:10393000F0BD00BFF0B501461F4616460369EFF320
:10394000108072B6D3E8CF4F0122002CFAD1C3E821
:10395000442F002CF6D1BFF35F8FB1F902300D690F
:10396000002B45DBD1F814E003EB43023EF8324074
:103970000EEBC20C4C800024C5E88F4F80F31088FA
:1039800005983546CCF8100006983E46CCF8140051
:10399000BCF80200CCE902560130C0F30E00012849
:1039A00038BF0120ACF8020040EA0340D1F810C053
:1039B000EFF3108572B6DCE8CF7F0126002FFAD135
:1039C000CCE8476F002FF6D1BFF35F8FB1F904C089
:1039D0002EF832C08B800B69C3E88F4F85F31088B7
:1039E0000122CB68097803F501538A405A60F0BD83
:1039F0000023C5E88F3F80F310884FF0FF30F0BD03
:103A000003464089B0EB214F3BDD58690A1402EBB5
:103A1000420210B5D3F810C000EBC202EFF31080E1
:103A200072B6DCE8CF4F5FF0010E002CF9D1CCE884
:103A300044EF002CF5D1BFF35F8FB2F802C089B21A
:103A4000614507D000221B69C3E88F2F80F31088DF
:103A5000002010BD6FEA41416FEA514151800121C0
:103A6000002299711C69C4E88F2F80F3108893F8A5
:103A700000C0DA68084602F5015301FA0CF15960FA
:103A800010BD0020704700BF407870472DE9F0411D
:103A900082B0064600F0ECF84FF47A7304464FF01B
:103AA000FF306FF00042E6FB0341A04272EB0103DE
:103AB0003ABF044615460D46A61F45F1FF37B442EE
:103AC00075EB07033CBF0026374600F0D1F8301AEB
:103AD00067EB0101012871F1000106DA2046294651
:103AE00002B0BDE8F04100F0CDB800F0C1F8864268
:103AF00067EB010100290ADB0021174B32460093D6
:103B000016483B460191FFF715FF0130E6D04FF014
:103B1000000C134A1349536A9F4204D8906AB0427A
:103B2000DCD29F42DAD10B68EFF3108072B6D3E893
:103B3000CF8F5FF0010EB8F1000FF8D1C3E848EF66
:103B4000B8F1000FF3D1BFF35F8F0B68C3E88FCFDD
:103B500080F3108820BFDEE715340010E815002040
:103B600000000B408C2600200246EFF30583DBB2F9
:103B70007BB12F48436A8B4209D314BF0123002332
:103B8000816A914234BF184643F00100704700201B
:103B9000704770B584B00393264B0646DA681D78EB
:103BA00010460C46029200F05BF8029A05F1040CF4
:103BB00052F82CC0039BACEB000C301A64EB0101F3
:103BC000604571F1000111DB20BF194B5A6AA24216
:103BD00009D314BF012000209B6AB34228BF40F0E4
:103BE000010004B070BD002004B070BD029300F06D
:103BF0003FF8864264EB010100293246E5DB0E49BD
:103C0000029B0C48CDE900132346FFF793FE011EEB
:103C1000DBDD074B5A6AA24208D39B6AB34203D347
:103C20000448FFF7EDFED0E7A242F9D120BFF7E745
:103C300000000B40E81500201534001010B4054BAF
:103C4000054C064AA04214BF1846581C10BCFEF78B
:103C5000D7BF00BFB021002000800B406899001042
:103C60000346416A0A46986A596A8A42FAD17047FD
:103C7000034B596A0A46986A596A9142FAD17047C9
:103C800000000B40074A536A9942FCD8994207D179
:103C9000044B02E05A6A914202D19A6A8242F9D3F5
:103CA000704700BF00000B4000EB400C4FEA8C0C4B
:103CB0000CF1804C0CF5803C70B51E46DCF80430ED
:103CC000041FB3F5803F38BF4FF48033E4B238BFF0
:103CD000CCF80430012C0CF540532CD94FF4006E75
:103CE000C3F800E0254B53F820E0BEF1000F17D1D8
:103CF000DCF800E0012C8EEA421202F0E0020CF542
:103D0000805ECEF8002029D94FF4006143F820608E
:103D10004FF480330CF500521160CCF8043070BDC4
:103D20005D69B5FBFEFE0EF1010E0EEB4E0EBEF10F
:103D3000030EFCD2DCE70129D0D103241C60DCF89F
:103D40000830DB07FBD5DCF800300CF5805E83EA39
:103D5000421303F0E003CEF80030084B0122DCF8F8
:103D600000404C4004F00304CEF8004002FA01F198
:103D7000DCF808200A42FBD0C6E700BFB4210020CF
:103D8000014B53F820007047B42100202DE9F04189
:103D9000584C0646206C1746B0F5803F38BF4FF4AC
:103DA00080320B464FF0030184B038BF2264524A80
:103DB000504CD163626CD207FCD5E26B4F4982F064
:103DC000200202F0E002CA63E26B4A4C82F0010278
:103DD00002F00302CA63626C9507FCD54FF40061E0
:103DE0004FF48038464A474DD163474A03936A618E
:103DF00001213246C4F840804448009700F046F95B
:103E00004FF40061039B07FB03F3B6FBF3F6636B10
:103E1000434538BFC4F83480374B2A6919633AB137
:103E20006B69B3FBF2F3013303EB4303033BFDD2B6
:103E30003049324A0B6B03F0E00313630B6B83F0E2
:103E4000020303F0030313638B6B5807FCD54FF495
:103E500000644FF480332A4A14632D4A4B632A616D
:103E60000A6C244C9A424FF0030238BF0B64224B79
:103E7000DA63636CDA07FCD5E36B204A03F0E003F6
:103E8000D363E36B1B4983F0010303F00303D363A4
:103E90004B6C9B07FCD54FF480334FF40064184AF9
:103EA0006E61D4630B64CA6C9A4238BFCB644FF422
:103EB0000061114BAA6999643AB16B69B3FBF2F3E3
:103EC000013303EB4303033BFDD24FF400604FF497
:103ED0008031084A094C936C83F0400303F0E003FF
:103EE000A364074B084CAC619864D16404B0BDE88E
:103EF000F08100BF0000014000300140001001408F
:103F000000200140B4210020006CDC0200000540CC
:103F1000001BB7002DE9F04F4FF4A078964685B00E
:103F20000391DFF864915649019349450AD908F194
:103F3000FF38A1F53B51B8F10F0FA1F12001F4D1E9
:103F4000002066E0072301F53722029103FB03F10D
:103F500002F5D872B2FBF1FA82454FF0010C4FF036
:103F600002074FF003064FF004054FF005043FD061
:103F7000B3F1010A00F082800AFB03F1B2FBF1FB0E
:103F8000584549D01CB303FB04F1B2FBF1FB584583
:103F90004BD0E5B105FB03F1B2FBF1FB58454DD029
:103FA000AEB106FB03F1B2FBF1FB58454FD077B140
:103FB00007FB03F1B2FBF1FB584551D0BCF1000FF8
:103FC00005D00CFB03F1B2FBF1FB83454DD053460A
:103FD00003FB03F1B2FBF1FA824504F1FF3405F172
:103FE000FF3506F1FF3607F1FF370CF1FF3CBFD17B
:103FF00001FB10210029BBD172461F46DDF80CA041
:104000000120204901FB08F1CAF800101360019B50
:104010001F6005B0BDE8F08F01FB10210029B1D170
:1040200057467246DDF80CA0EAE701FB1021002993
:10403000AFD172462746DDF80CA0E1E701FB102165
:104040000029ADD172462F46DDF80CA0D8E701FB60
:1040500010210029ABD172463746DDF80CA0CFE71E
:1040600001FB10210029A9D1DBE701FB1021002968
:10407000ADD172466746DDF80CA0C1E7029956E75C
:1040800050262F00001BB70050F80C0010B50C464E
:104090000299D0F800C04FEA013E4EEA034E1D4B94
:1040A000BCF1000FB3FBF4F3B2FBF3F121DB1A4ACE
:1040B0001A4B904214BF4FF480424FF40042DFF895
:1040C00060C01A6003F580531A60DCF8083032EAE9
:1040D0000303FAD1212200F54053043304608160C8
:1040E0001A600268002AFCDA0822C0F80CE01A60A4
:1040F00010BD036803F03F03A342D8D18368C3F324
:104100000B038B42D3D1C36803F4EE237345CED1A6
:1041100010BD00BF001BB70000800540002002401A
:10412000000002404FF0804C214B00B5C3F800C0A6
:10413000002839D0DFF888C0A3F54053C3F81CC06D
:10414000DFF880C040F0010080EA0C0CC3F820C00A
:10415000596298624FF0804E4FF0E061144B154861
:10416000DFF864C0C3F800E0C0F808C019602AB9DD
:104170004FF00042A3F580531A6000BD4FF47A73EC
:1041800003FB02F2B2F1807F2ABF6FF07F43134638
:104190001A464FF08041DFF834C00748CCF80030B1
:1041A000064B4260196000BD034BD861D2E700BFE7
:1041B00000B00D4000A0014000800D4000A00D4067
:1041C000D3C007B02D3FF84FF3FFFF0114260020A6
:1041D000012300EB4000800000F1804000F58410D6
:1041E00041600360704700BF10B5002482B00B46E9
:1041F000E48A002141E800F1CDE900034B0254BFFD
:104200001021042144F25220A047DDE90023864614
:104210000A214FF48170F44602B0BDE810406047B7
:104220000023DB8A002242E800F2520201D410216E
:1042300018470421184700BF08B503460846191E51
:1042400002DB1AB140F03000FFF7CEFF40F0200053
:10425000FAE700BF034AD2F82838002BFBD0BFF39F
:104260005F8F704700000E400021044B044ABFF3EB
:104270005F8F43F8041B9342F9D170470C080E403E
:104280002C080E404FF42A6C4FF48D70054A064BF3
:104290000649C2F800C0D06019605368002BFCDAF0
:1042A000704700BF0080044000A0044000B0FA0046
:1042B000704700BF08B50148FEF76EFC8C990010EE
:1042C00038B5054C054DAC4204D254F8043B984730
:1042D000AC42FAD338BD00BF409600108096001063
:1042E0000648DFF828C0064B064A0749C0F800C058
:1042F0001A608B6832EA0303FBD17047002002404A
:1043000000300240F6FFF303000002407F3BEFEF76
:10431000044BDB6CB3F5004F03D14FF48022024B0A
:10432000DA64704700001150002011504FF0E02275
:10433000044BD2F8881D0B43C2F8883D10EE3004C0
:10434000704700BF030330006FF06041044B054A23
:1043500019609368DB4333F06043FAD1704700BFC4
:10436000003002400000024010B545F25320FFF734
:1043700057FFBDE8104003460420184710B545F22A
:104380005320FFF74DFFBDE81040034601201847BA
:10439000FEF7CABC1549164B70B55C1AA510442D22
:1043A0002A4628BF4422134E9200304605F01EF8DC
:1043B000B4F5867F14D8104A15D0C5F1440C3319D2
:1043C0004FEA5C0003EBC001C3E9002208338B42D3
:1043D000FAD1BCEB400F03D005EB400546F8252091
:1043E000064B9E6070BD4325F8E700BF000000103B
:1043F00010010010000000201101001000ED00E08D
:10440000002370B52B4C82B0C4F88430FFF73AFF1C
:104410000122294BDA63636C012BFCD10321264A6C
:10442000244B11639C6B012CFCD1022605252146EF
:104430000523224A22480096FFF728FE21462B46F4
:10444000204A21480095FFF721FE00220420314632
:104450001E4BFFF729FC2146284600221C4BFFF784
:1044600023FC0022082011461A4BFFF71DFC0022F6
:1044700009201146174BFFF717FC002206201146B2
:10448000134BFFF711FC0022114B07201146FFF7D9
:104490000BFC0420FFF774FC00240F4BA3FB00353A
:1044A000AD0CE0B229460134FFF792FE062CF8D19C
:1044B00002B070BD0000014000300140002F68597B
:1044C00000000540008C864700800540001BB700B7
:1044D00080D1F008006CDC0283DE1B4386B003B49D
:1044E00051FC0804CDE9020151FC0904CDE90401A5
:1044F00051EC0A04CDE9060103BCF047BDE80050C9
:104500004EEC00C4BDE800504EEC01C4BDE80050C4
:104510004EEC02C400BD000000B5FFF7DFFF02E073
:1045200010FE30F4F8D441EC100443EC112400EEFA
:10453000010410EE010480EE200451EC10047047D9
:1045400000B5FFF7CBFF02E010FE30F4F8D441ECE9
:10455000100443EC112400EE010410EE210480EE5F
:10456000200451EC3004704700B5FFF7B7FF02E0BC
:1045700010FE30F4F8D410B541EC100443EC1124D3
:1045800051EC040453EC0524A0FB024C5FF0000E38
:10459000E0FB03CEE1FB02CE4CEC20440024E1FB27
:1045A00003E444EC30E480EE200451EC5004BDE818
:1045B0001040704700B5FFF791FF02E010FE30F4A5
:1045C000F8D441EC100443EC112451EC2104A0FB7D
:1045D00001126FEA820252FB100052FB12F252FBF0
:1045E0001000A0EBD07C53EC04245CFB13F153ECE3
:1045F0001524A1FB022001FB030053EC4424A2EB91
:10460000000050FB1CF24FEA111312EB017043EB58
:10461000E27140EA515020EA915020F0070053EC3B
:104620007524A0FB023C53EC752400FB03CC01FB7A
:1046300002CC53EC0424ACEB824C40EA5C70A0F159
:10464000010041EC400480EE200451EC70047047FE
:1046500000B5FFF743FF02E010FE30F4F8D441EC60
:10466000100480EE220410EEB204704700B5FFF78C
:1046700035FF02E010FE30F4F8D440EC700400EE98
:10468000010410EE210480EE200451EC3004704748
:1046900000B5FFF723FF02E010FE30F4F8D440EC41
:1046A000600400EE010410EE210480EE200451ECC1
:1046B0003004704700B5FFF711FF02E010FE30F440
:1046C000F8D441EC800400EE010410EE010480EE09
:1046D000400410EE1304704700B5FFF7FFFE02E040
:1046E00010FE30F4F8D441EC800400EE010410EE2A
:1046F000010480EE400410EE3304704700B5FFF76C
:10470000EDFE02E010FE30F4F8D441EC100443EC6E
:10471000112400EE010410EE3004C0F30070704765
:1047200000B5FFF7DBFE02E010FE30F4F8D443ECF6
:10473000102441EC110400EE010410EE30F48CBFA3
:1047400001200020704700BF00B5FFF7C7FE02E060
:1047500010FE30F4F8D443EC102441EC110400EEC8
:10476000010410EE30F42CBF01200020704700BF80
:1047700000B5FFF7B3FE02E010FE30F4F8D441ECD0
:10478000100443EC112400EE010410EE30F42CBFB1
:1047900001200020704700BF00B5FFF79FFE02E038
:1047A00010FE30F4F8D441EC100443EC112400EE78
:1047B000010410EE30F48CBF01200020704700BFD0
:1047C00007EE100AF7EE006A76EEC77A77EE266AF1
:1047D00067EEA67A17EE903A13F0FF4F01D0002B48
:1047E0000DDBF5EE407AF1EE10FA17EE103A09D42F
:1047F000B1EEE77A184617EE101A00F02BB94FF019
:10480000FF40704700B517EE900A83B08DED017A36
:1048100004F00AFF019B0146184603B05DF804EB63
:1048200000F018B90022002980F2A980404261EB13
:104830004101B1B3B1FA81F3083B16D4994010FAA3
:1048400003FCC3F1200320FA03F040EA0100A2EBCD
:104850000302C2F195021CEB0C0C40EBC25040F07D
:10486000004020D0FE2A16D2704703F1210311FA2E
:1048700003FC5CEA000CC3F1210321FA03F0A3EB73
:10488000020202F1B50240EBC25040F000400AD0F3
:10489000FE2A38BF70474FF00040A8BFCFF68070A7
:1048A000704711460AE028BF20F00100FE2A38BFF9
:1048B0007047F0E7002880F233804042B0FA80F37E
:1048C000083B0CD4984001EB0302C2F1950200EBC7
:1048D000C25040F00040FE2A38BF704713E003F199
:1048E000210310FA03FCC3F1210320FA03F0A3EB28
:1048F000010202F1950240EBC25040F0004008D0A6
:10490000FE2A38BF70474FF00040A8BF40F0FF407C
:10491000704728BF20F00100FE2A38BF7047F2E739
:1049200020B3B0FA80F3083B0AD4984001EB0302AD
:10493000C2F1950200EBC250FE2A38BF704711E069
:1049400003F1210310FA03FCC3F1210320FA03F061
:10495000A3EB010202F1950240EBC25007D0FE2A00
:1049600038BF7047ACBF4FF0FF400020704728BFF2
:1049700020F00100FE2A38BF7047F3E7002289B318
:10498000B1FA81F3083B14D4994010FA03FCC3F147
:10499000200320FA03F040EA0100A2EB0302C2F177
:1049A00095021CEB0C0C40EBC2501ED0FE2A14D218
:1049B000704703F1210311FA03FC5CEA000CC3F118
:1049C000210321FA03F0A3EB020202F1B50240EB4E
:1049D000C2500AD0FE2A38BF7047ACBF4FF0FF402C
:1049E000002070471146FFF79BBF28BF20F0010051
:1049F000FE2A38BF7047F0E751F48000704703D1BA
:104A0000B3F1FF4F3CD106E050F480007047FBD17A
:104A1000B3F1FF4F49D1013801391BE003F00043E6
:104A2000B2F5000F02D20BE002F0004243EC102A74
:104A300080EE201A1EE003F00043B2F5000F04D20E
:104A400041F07E5106E002F0004243EC102A80EE75
:104A5000801A24E020F0004221F0004343EC102AA9
:104A60009A4214D880EE201AB3F5000FD6D3B2F5CF
:104A7000000FD9D3B3F1FF4FBED8B2F1FF4FBED272
:104A800000294CBFDFF82CC14FF0000C11E080EE84
:104A9000801AB3F5000FCED3B2F5000FD3D3B3F124
:104AA000FF4FA9D8B2F1FF4FB1D2DFF804C191F0A6
:104AB000004142A2F0EE411AFFEECD1A11EE903AFB
:104AC0005B0853F1000302EBC302D2ED012A22EE90
:104AD000810A71EE620AF7EE002A32EE800A32D0C5
:104AE00080EE800A1268002948BF524262440028C2
:104AF00048BF5242002A07D55242B2FA82F39A4086
:104B00000BD0C3F5C07305E0B2FA82F39A4004D02B
:104B1000C3F18003120A42EBC35220EE001ADFED0C
:104B2000261A21EE001A90EA010F21EE211A02EE58
:104B3000102A30EE410A54BF32EE000A32EE400A2B
:104B400010EE100A704780EE800A6246002848BFC7
:104B50005242002A07D55242B2FA82F39A400BD051
:104B6000C3F5C07305E0B2FA82F39A4004D0C3F1F2
:104B70008003120A42EBC35220EE001ADFED0E1A38
:104B800021EE001A90EA010F21EE211A02EE102AFE
:104B900030EE410A54BF32EE000A32EE400A10EE07
:104BA000100A10F0FF4F18BF704700F00040704728
:104BB000A9F6433251ED8764ABAAAA3E000000007B
:104BC0000000000023EEFF00BB01003DDC88FE0179
:104BD0002A997F3D700AFE020312C03D28D2FA03D3
:104BE0006803003E70ABF504EAFD1F3EF856ED0584
:104BF000DCDD3F3EA0CFE4062514603EE0D3D807BD
:104C00005D21803E6004C608A500903E7067B20931
:104C10009214A03E506D990A7713B03E106D7A0B36
:104C2000A0F4BF3EE03C590C9F01D03ED0EB330DC9
:104C3000BC1BE03EB07A080EBD1FF03E8061D50E71
:104C400098EFFF3E80DEA10FBF0E083F009D63106E
:104C500031EC0F3FE0902611FD0C183FC014E0111D
:104C60006500203FE0519612BE08283F00D446134D
:104C70007D0A303FC0C7EF132FEE373F608998148D
:104C8000320C403FC0A8371542EF473F60CCD415E7
:104C900030F64F3F80F26E163415583FC075FF1640
:104CA0001EEF5F3FA01691174D18683FA05A1B18C2
:104CB0002217703F6005A1187110783F60402119DC
:104CC00051F47F3F704700BF2DE9F04F83B00F468E
:104CD0001146DDE90EB292079846DDE90C930646CF
:104CE0002AD0002B40D00D4609EB030405EB040A43
:104CF00001950D460D93AAEB040214F8010D4346ED
:104D00003946B0474C45F6D129460D9B019D1D44BF
:104D10000F9B9B070CD56C1AA34509D92A4643461D
:104D2000394620200134B0475C4505F10105F5D333
:104D3000284603B0BDE8F08F5B4517D28A461C4673
:104D40008946ABEB03050D445246434639462020C5
:104D50000AF1010AB047AA45F6D149462346DDF8D3
:104D60003090002CC0D1E3E70D46D1E7002BBAD13B
:104D70000D46DDE72DE9F04F0F460F9906469DF8E9
:104D80002C008D079046DDE90CA299468346099CCC
:104D9000DDF828C00E9B51D4002B4AD194454DD24A
:104DA00001F0010504F1FF3E3020E64405E00CF17E
:104DB000010C62450EF8010F02D9BCF1200FF6D1AB
:104DC000002D00F08480634538D9601E4FF0300E0E
:104DD000604405E00CF1010C9C4500F801EF2DD07A
:104DE000BCF1200FF6D1CD0616D548054ED494451A
:104DF00061D09C455FD0BAF1100F4AD0BAF1020FD2
:104E000052D0BCF1200F07D062460CF1010C3020CB
:104E1000A054BCF1200F22D1CDE90B3142464B46C4
:104E200039463046CDF828C00994BDE8F04FFFF769
:104E30004BBF11F0010523D19445B3D3CD06E8D57E
:104E40004805D8D4BCF1000FD1D1BAF1100F53D01E
:104E5000BAF1020F6FD030224FF0010C2270BBF17B
:104E6000000F07D1480737D52B2204F80C200CF18E
:104E7000010CD1E72D2204F80C200CF1010CCBE73A
:104E800090B3944503F1FF338CD39CE7BAF1100F34
:104E9000C2D18D063CD5BCF1200FBDD0582204F8FC
:104EA0000C200CF1010CACE7BCF1200FB4D0624631
:104EB0000CF1010C08E0BCF10102C6D0BAF1100FF0
:104EC00042D0BAF1020FA2D16220A05499E7CD06D8
:104ED0009FD548058BD58EE70A079DD5202204F87B
:104EE0000C200CF1010C97E711F00C0F00D0013BE6
:104EF0009445FFF457AF66E78A0612D478222270F1
:104F000030224FF0020C6270BBF1000FAAD0B1E763
:104F1000BCF1200F80D0782204F80C200CF1010C99
:104F20006FE75822227030224FF0020C6270BBF102
:104F3000000F97D09EE7622222703022D446627022
:104F4000BBF1000F8ED095E78D06ACF1020004D5C1
:104F50004FF0580E04F800E059E74FF0780E04F8CF
:104F600000E054E700B9704701F01EBB10B1D1E971
:104F700000311847704700BF2DE9F04F97B09DED05
:104F8000207BDDE9225B8046894651EC170B9A466F
:104F9000249B0C92079302460B468DED047BFFF792
:104FA000B1FB002840F0E681DDE904014FF0FF325B
:104FB0006FF48013FFF7B8FB002840F00F81DDE9A4
:104FC00004014FF0FF32B44BFFF7EAFB002840F03A
:104FD000E380DDE90467ACA3D3E90023304639461A
:104FE000FFF7DEFB002840F0C680A9A3D3E9002329
:104FF00030463946FFF798FB002840F0BC80304629
:10500000394600220023FFF78FFB002840F0DB80A9
:105010000D90079B302113F4806F08BF06250EAA60
:105020002B46A5F1200605E0013B9E4202F8011B3C
:1050300000F06881092BF7D81E46ED1ADDE904015E
:10504000FFF73CFB954B044603EBC60393ED007B57
:105050008DED087BFFF70EFB02460B46DDE90401F0
:10506000FFF772FADDE90823FFF782FACDE90A01BA
:10507000FFF736FB0746FFF70FFB02460B46DDE95D
:105080000A01FFF761FA0022854BCDE90A01FFF71B
:1050900087FB002800F0C98001373846FFF7FCFA8B
:1050A0000B460246DDE90801FFF752FB631C0028AE
:1050B0001CBF00271C46002E00F0C7800DF1370CE6
:1050C00078480CEB05010FE0A0FB0732D20802EB99
:1050D0008203A7EB43033033092F05F1010501F8E3
:1050E000013F40F2F9801746202D06F1FF36EBD143
:1050F0006C480CEB05010FE0A0FB0423DB0803EB7D
:105100008302A4EB420404F1300201351C4601F88D
:10511000012F002B00F0CE80202DEDD1079B03F056
:105120000303012B16D1BBF1000F13D00D9B002BF5
:1051300000F0EA800BF1FF3BBBF1200F0AD93023CE
:10514000AC4405E001355D450CF8013F80F0B880C6
:10515000202DF7D1079B0EACCDE902B30094534646
:10516000494640460C9A0195FFF7AEFD044620469D
:1051700017B0BDE8F08F079B9DED047BCDE923B30D
:105180004946534640460C9A8DED207B229517B038
:10519000BDE8F04F00F040B9079B494658074CBFA7
:1051A00004230323404621935346079A48BF3E4CAD
:1051B000CDE922B258BF3D4C0C9A209417B0BDE8FF
:1051C000F04FFFF781BD3B46324600200021FFF73C
:1051D000BBF90123CDE904010D931AE7079B03F006
:1051E00002029C07049200F0B3800C9F3D46304EB3
:1051F000341D14F8010D2A4653464946C047B442AF
:1052000005F10105F5D1049B3C1D002BAFD00C9D91
:10521000631B9B45ABD922465346494620200134A7
:10522000C047631B9B45F6D8A1E70022DDE90A01D0
:105230001B4BFFF779FA00287FF43DAF002F40F0B9
:1052400083800137002E7FF439AF2046FFF712FA32
:1052500002460B46DDE90401FFF776F90022104B08
:1052600006460F46FFF760FA48B930463946002235
:105270000B4BFFF795FA10B9013424F001040DF13E
:10528000370C35E7AFF300800000000065CDCD415D
:105290000000000065CDCDC1FFFFEF7F309B001007
:1052A0000000E03FCDCCCCCCD8990010E0990010A4
:1052B000E8990010079B03F00303012B00F097808F
:1052C000202D3FF447AF0D9B53B32D220DEB05036B
:1052D00083F8382001353DE7202D3FF409AF302217
:1052E0002E440CEB050305E00135202D03F8012FBA
:1052F0003FF4FEAEAE42F7D12E236E44013586F860
:105300003830F5E6202599E6079B13F00C0F59D0AD
:105310000BF1FF3BAB453FF612AF202D3FF41AAF28
:10532000079B5A0706D52B220DEB050383F838207F
:1053300001350FE71B077FF50DAF20220DEB0503AD
:1053400083F83820013505E7F9077FF5B4AE78E733
:10535000BBF1040F7FF649AF0C9B1D46043B03EBEA
:105360000B072A465346494620200135C047BD4217
:10537000F7D13BE7079B03F002029D07049225D07B
:105380000C9F3D46224EF41C14F8010D2A4653464C
:105390004946C047B44205F10105F5D1049BFC1C08
:1053A000002B3FF4E4AE0C9D631B5B45BFF4DFAE06
:1053B00022465346494620200134C047631B9B4583
:1053C000F6D8D4E6AB453FF6BAAEC3E6BBF1030F61
:1053D000D6D90C9B1D46033B03EB0B072A465346CD
:1053E000494620200135C047BD42F7D1C9E7BBF18E
:1053F000000F3FF465AF0D9B002B85D00BF1FF3BF9
:105400005D45FFF49CAE202D7FF45FAFA2E600BFA8
:10541000E4990010000000002DE9F04F9FB01E46F7
:10542000DDE928ABDDE92B982A9B074614460A9153
:105430000B9352465B4650465946FFF763F90028E6
:1054400040F0C680504659464FF0FF327B4BFFF785
:10545000A7F9002840F0BC80504659464FF0FF3273
:105460006FF48013FFF760F9002840F0B1805046D8
:10547000594600220023FFF757F9002840F0DD814C
:10548000CDE908ABDDE9081218F480600B460D4643
:1054900008F400610C921491159040F0A880134319
:1054A00040F0D080002940F0EF8106230B9318F0E4
:1054B0000203109300F0DD810222002310920422E7
:1054C000149312920E935046594600220023FFF780
:1054D0002BF9002840F02C829DED087B149B22467E
:1054E00003930B9B8DED007B029328F400630493E0
:1054F000384633460A99FFF73FFD024618F0200F61
:1055000033460CBF652045200A9902F10108B847CF
:10551000129B0DF1580A03F1FF3B0E9B002283EA18
:10552000E37C5046DFF818E10A9DACEBE37CD90F31
:10553000CDF8208002E0202AC44610D0AEFB0C3803
:105540004FEAD80808EB8803ACEB43030130303353
:10555000BCF1090F02F1010200F8013CEBD8052370
:105560004FF0000C06930A23DDF82080CDE90121DD
:10557000CDE9033CCDF800A03346424629463846E3
:10558000CDF814B00A95FFF7F5FB109B8246DBB10E
:10559000A0EB0408C14517D90A9D04EB0802334665
:1055A0002946202008F10108B847C145F5D8631EF7
:1055B0004B44C4F10104A3EB0A035444A14538BF92
:1055C00000230AF1010A9A4450461FB0BDE8F08F4B
:1055D000334638462246CDE928AB0B9CCDE92B98C3
:1055E0000A992A941FB0BDE8F04FFFF7C5BC55EAF1
:1055F000020329D100293FF45AAF00230E930B9BDD
:105600000E9A934200F3BA81002550465946002273
:105610000023FFF789F8002840F015819DED087BF5
:1056200028F4006343F480632C938DED287B33468C
:1056300022463846CDE92A590A99D3E7FFFFEF7F82
:10564000CDCCCCCC06230B930C9BC3F30A50A0F219
:10565000FF30FFF70FF8B2A3D3E90023FEF788FF6E
:10566000B1A3D3E90023FEF75BFF0C9BCDE90E014C
:10567000C3F3130343F07F5128460022A24B41F4A9
:105680004011FEF761FF94A3D3E90023FEF770FFFA
:1056900002460B46DDE90E01FEF742FFFFF70EF86A
:1056A0000E90FEF7E7FF8EA3D3E90023CDE90C01AE
:1056B000FEF75EFF0022954BFEF732FFFEF7FEFF7E
:1056C00089A3D3E900230546DDE90C01FEF750FF6D
:1056D000CDE90C012846FEF7CDFF85A3D3E90023D1
:1056E000FEF746FF02460B46DDE90C01FEF72CFFF4
:1056F00002460B46CDE90C23FEF73AFFCDE9100137
:10570000DDE90C0102460B46FEF70AFF0022CDE957
:105710001201DDE910017E4BFEF750FF00227D4BA8
:10572000FEF7FEFE02460B46DDE91001FEF746FFDE
:105730000022794BFEF7F4FE02460B46DDE910012C
:10574000FEF73CFFCDE91001DDE90C2300204FF00E
:105750008041FEF7F9FE02460B46DDE91001FEF737
:10576000DFFE02460B46DDE91201FEF727FF0022AD
:105770006A4BFEF7D5FE05F2FF3C00224FEA0C53C0
:10578000FEF7F6FE02460B46DDE90801CDE90C23E3
:10579000FEF7CAFF50B1DDE90C010E9B0022013B70
:1057A0000E935C4BFEF70AFFCDE90C01DDE90C011D
:1057B0000E9B02466333C62B08F002031093149B22
:1057C0002DD8002B62D0042312930A433FF417AF65
:1057D000DDE9080148A3D3E90023FEF7CDFF48B176
:1057E000DDE9080146A3D3E90023FEF79DFF002869
:1057F0007FF405AF0B9B002B54D0159A002A00F0C4
:10580000AC80013B0B93129B994505D9109B002B53
:1058100000F0AF80022310930023149347E02BBBCA
:10582000B9F1050F52D908F00203002B4CD1052322
:105830001293A9F1050314933DE00BF10043CDF859
:1058400020A009931EE628F4006343F480632246F7
:1058500038462C933346DDE908673446CDE92A59AA
:1058600007F10045CDE928450A99BBE605231293C7
:10587000ABE71A464B46042B38BF04230E92042292
:10588000043B129214931EE60525BEE6B9F1040FFF
:105890001FD9109B002B74D104231293A9F1040388
:1058A000149304E0129B99455CD80B9B14930E9BB8
:1058B000002B3FF408AEDDE90801DDE90C23FEF71B
:1058C0007DFECDE90801FEE5022310930523129326
:1058D000F1E704231293EAE761436F63A787D23F9E
:1058E00071A379094F930A401655B5BBB16B0240BD
:1058F000EF39FAFE422EE63F2D431CEBE2361A3F0B
:105900000000000080842E410000F83F0000E03FCE
:1059100000002C4000002440000018400000F03F30
:10592000FB799F501344D33FB3C8608B288AC63F8E
:10593000149BDDE908A503930B9B05F1004B029333
:1059400028F400632246049338463346CDE900AB81
:105950000A99FFF711FB0246D0E5129B994515D82D
:105960001492A4E7109B23B10B9B14930223109372
:105970009DE7129BA9EB0303149398E79B1A5D1E06
:1059800043E6042312930223109390E7109B002B0D
:10599000EFD002231492109389E700BF2DE9F04F56
:1059A000994693469D4C9E4A0B1E9DB018BF80465B
:1059B000146099F800009B4A269F08BF90460993FF
:1059C000002800F0B6824FF0000ACDF828B009E0B8
:1059D00052460A9B0999C0470AF1010A99F800004A
:1059E00000287BD0252809F10109F1D100224B467E
:1059F00013F8010BA0F1200110290AD8DFE801F00B
:105A00003F09093B09090909090909370933090946
:105A10002F00A0F13001092940F2B6802A2800F0B9
:105A2000EF8000242E2800F09E800025A0F1680160
:105A300012292DD8DFE811F039012C004E012C007D
:105A400042012C002C002C002C002C002C002C00DF
:105A500027002C002C002C002C002C00270099463D
:105A600042F00102C3E7994642F00202BFE79946BD
:105A700042F00402BBE7994642F01002B7E79946AC
:105A800042F00802B3E799F8010042F48072013352
:105A90006528994632D8462800F28680252897D076
:105AA000242895D9452800F0F481462890D142F069
:105AB0002002CDE90342DDE909130737029527F0FB
:105AC00007075246F7E802454046CDE90045FFF793
:105AD00053FA824699F80000002883D15446DDF835
